:0400000500000A816C
:020000040000FA
:1000000000040020810A000015070000610A0000BA
:100010001F07000029070000330700000000000050
:10002000000000000000000000000000A50A000021
:100030003D070000000000004707000051070000D6
:100040005B070000650700006F07000079070000EC
:10005000830700008D07000097070000A10700003C
:10006000AB070000B5070000BF070000C90700008C
:10007000D3070000DD070000E7070000F1070000DC
:10008000FB070000050800000F0800001908000029
:10009000230800002D080000370800004108000078
:1000A0004B080000550800005F08000069080000C8
:1000B000730800007D080000870800009108000018
:1000C0009B080000A5080000AF080000B908000068
:1000D000C3080000CD080000D7080000E1080000B8
:1000E000EB080000F5080000FF0800000909000007
:1000F000130900001D090000270900003109000054
:100100003B0900001FB500F003F88DE80F001FBD8C
:1001100000F0ACBC40F6FC7108684FF01022401CA7
:1001200008D00868401C09D00868401C04D0086842
:1001300000F037BA9069F5E79069F9E7704770B554
:100140000B46010B184400F6FF70040B4FF0805073
:100150000022090303692403406943431D1B104621
:1001600000F048FA29462046BDE8704000F042BA47
:10017000F0B54FF6FF734FF4B4751A466E1E11E0DA
:10018000A94201D3344600E00C46091B30F8027B3B
:10019000641E3B441A44F9D19CB204EB134394B25D
:1001A00004EB12420029EBD198B200EB134002EBB2
:1001B000124140EA0140F0BDF34992B00446D1E952
:1001C0000001CDE91001FF224021684600F0F4FB58
:1001D00094E80F008DE80F00684610A902E004C8FB
:1001E00041F8042D8842FAD110216846FFF7C0FF7C
:1001F0001090AA208DF8440000F099F9FFF78AFFCB
:1002000040F6FC7420684FF01025401C0FD0206889
:1002100010226946803000F078F92068401C08D030
:100220002068082210A900F070F900F061F9A869AF
:10023000EEE7A869F5E74FF080500369406940F6A2
:10024000FC71434308684FF01022401C06D0086838
:1002500000F58050834203D2092070479069F7E788
:100260000868401C04D00868401C03D00020704778
:100270009069F9E70420704770B504460068C34DE3
:10028000072876D2DFE800F033041929631E250021
:10029000D4E9026564682946304600F062F92A46CE
:1002A0002146304600F031F9AA002146304600F0E0
:1002B00057FB002800D0032070BD00F009FC4FF46C
:1002C000805007E0201D00F040F90028F4D100F034
:1002D000FFFB60682860002070BD241D94E80700C3
:1002E000920000F03DFB0028F6D00E2070BDFFF715
:1002F000A2FF0028FAD1D4E901034FF0805100EBAE
:10030000830208694D69684382420ED840F6F8704E
:1003100005684FF010226D1C09D0056805EB8305B8
:100320000B6949694B439D4203D9092070BD55694A
:10033000F4E70168491C03D00068401C02D003E0C8
:100340005069FAE70F2070BD2046FFF735FFFFF731
:1003500072FF0028F7D1201D00F0F7F80028F2D135
:1003600060680028F0D100F0E2F8FFF7D3FE00F05B
:10037000BFF8072070BD10B50C46182802D0012028
:10038000086010BD2068FFF777FF206010BD41684E
:10039000054609B1012700E0002740F6F8742068FF
:1003A0004FF01026401C2BD02068AA68920000F065
:1003B000D7FA38B3A86881002068401C27D020688D
:1003C000FFF7BDFED7B12068401C22D026684FF051
:1003D0008050AC686D68016942695143A9420DD9EA
:1003E000016940694143A14208D92146304600F0E5
:1003F000B8F822462946304600F087F800F078F831
:100400007069D2E700F093F8FFF784FEF6E77069B1
:10041000D6E77669DBE740F6FC7420684FF01026DB
:10042000401C23D02068401C0CD02068401C1FD0EA
:100430002568206805F18005401C1BD027683879A5
:10044000AA2819D040F6F8700168491C42D001680A
:10045000491C45D00168491C3ED001680968491C07
:100460003ED00168491C39D000683EE0B069DAE747
:10047000B569DEE7B769E2E710212846FFF778FEA5
:100480003968814222D12068401C05D0D4F8001080
:1004900001F18002C03107E0B169F9E730B108CA63
:1004A00051F8040D984201D1012000E000208A4259
:1004B000F4D158B1286810B1042803D0FEE72846CB
:1004C000FFF765FF3149686808600EE0FFF722FE1C
:1004D00000F00EF87169BBE77169BFE7706904E06D
:1004E0004FF480500168491C01D000F0CBFAFEE7C0
:1004F000BFF34F8F26480168264A01F4E06111439B
:100500000160BFF34F8F00BFFDE72DE9F0411746B3
:100510000D460646002406E03046296800F054F8EF
:10052000641C2D1D361DBC42F6D3BDE8F08140F69B
:10053000FC700168491C04D0D0F800004FF48051D1
:10054000FDE54FF010208069F8E74FF080510A690F
:10055000496900684A43824201D810207047002050
:10056000704770B50C4605464FF4806608E0284693
:1005700000F017F8B44205D3A4F5806405F5805562
:10058000002CF4D170BD0000F40A0000000000202F
:100590000CED00E00400FA05144801680029FCD0C5
:1005A0007047134A0221116010490B68002BFCD0E0
:1005B0000F4B1B1D186008680028FCD0002010603D
:1005C00008680028FCD07047094B10B501221A605A
:1005D000064A1468002CFCD0016010680028FCD08A
:1005E0000020186010680028FCD010BD00E4014015
:1005F00004E5014070B50C46054600F073F810B9EB
:1006000000F07EF828B121462846BDE8704000F091
:1006100007B821462846BDE8704000F037B8000012
:100620007FB5002200920192029203920A0B000B06
:100630006946012302440AE0440900F01F0651F80C
:10064000245003FA06F6354341F82450401C8242F8
:10065000F2D80D490868009A10430860081D016827
:10066000019A1143016000F03DF800280AD00649C4
:1006700010310868029A10430860091D0868039A3F
:10068000104308607FBD00000006004030B50F4CED
:10069000002200BF04EB0213D3F800582DB9D3F8A1
:1006A000045815B9D3F808581DB1521C082AF1D3C3
:1006B00030BD082AFCD204EB0212C2F80008C3F8CD
:1006C00004180220C3F8080830BD000000E0014013
:1006D0004FF08050D0F83001082801D0002070473A
:1006E000012070474FF08050D0F83011062905D016
:1006F000D0F83001401C01D0002070470120704725
:100700004FF08050D0F830010A2801D00020704707
:100710000120704708208F490968095808471020B0
:100720008C4909680958084714208A4909680958FA
:100730000847182087490968095808473020854923
:100740000968095808473820824909680958084744
:100750003C20804909680958084740207D490968BC
:100760000958084744207B49096809580847482028
:1007700078490968095808474C207649096809589A
:10078000084750207349096809580847542071499F
:1007900009680958084758206E49096809580847E8
:1007A0005C206C4909680958084760206949096854
:1007B00009580847642067490968095808476820AC
:1007C00064490968095808476C2062490968095852
:1007D000084770205F4909680958084774205D4937
:1007E00009680958084778205A490968095808478C
:1007F0007C205849096809580847802055490968EC
:10080000095808478420534909680958084788202F
:1008100050490968095808478C204E490968095809
:10082000084790204B4909680958084794204949CE
:10083000096809580847982046490968095808472F
:100840009C204449096809580847A0204149096883
:1008500009580847A4203F49096809580847A820B3
:100860003C49096809580847AC203A4909680958C1
:100870000847B0203749096809580847B420354966
:10088000096809580847B8203249096809580847D3
:10089000BC203049096809580847C0202D4909681B
:1008A00009580847C4202B49096809580847C82037
:1008B0002849096809580847CC2026490968095879
:1008C0000847D0202349096809580847D4202149FE
:1008D000096809580847D8201E4909680958084777
:1008E000DC201C49096809580847E02019490968B3
:1008F00009580847E4201749096809580847E820BB
:100900001449096809580847EC2012490968095830
:100910000847F0200F49096809580847F4200D4995
:10092000096809580847F8200A490968095808471A
:10093000FC2008490968095808475FF48070054998
:10094000096809580847000003480449024A034B54
:100950007047000000000020000B0000000B0000AA
:1009600040EA010310B59B070FD1042A0DD310C82C
:1009700008C9121F9C42F8D020BA19BA884201D97E
:10098000012010BD4FF0FF3010BD1AB1D30703D0C6
:10099000521C07E0002010BD10F8013B11F8014B7C
:1009A0001B1B07D110F8013B11F8014B1B1B01D198
:1009B000921EF1D1184610BD02F0FF0343EA032254
:1009C00042EA024200F005B87047704770474FF0A6
:1009D00000020429C0F0128010F0030C00F01B800C
:1009E000CCF1040CBCF1020F18BF00F8012BA8BF1A
:1009F00020F8022BA1EB0C0100F00DB85FEAC17CDE
:100A000024BF00F8012B00F8012B48BF00F8012B90
:100A100070474FF0000200B51346944696462039C1
:100A200022BFA0E80C50A0E80C50B1F12001BFF4A7
:100A3000F7AF090728BFA0E80C5048BF0CC05DF80D
:100A400004EB890028BF40F8042B08BF704748BF5B
:100A500020F8022B11F0804F18BF00F8012B7047CF
:100A6000014B1B68DB6818470000002009480A4951
:100A70007047FFF7FBFFFFF745FB00BD20BFFDE719
:100A8000064B1847064A1060016881F308884068E1
:100A900000470000000B0000000B000017040000DE
:100AA000000000201EF0040F0CBFEFF30881EFF3ED
:100AB0000981886902380078182803D100E0000015
:100AC000074A1047074A12682C3212681047000084
:100AD00000B5054B1B68054A9B58984700BD0000B0
:100AE0007703000000000020F00A0000040000006E
:100AF000001000000000000000FFFFFF0090D00386
:02000004000FEB
:1040000000000420B9B40F00E1B40F00E3B40F00C6
:10401000E5B40F00E7B40F00E9B40F0000000000A2
:10402000000000000000000000000000ED450F004F
:10403000EDB40F0000000000EFB40F00714D0F0051
:10404000E9500F00F3B40F00F3B40F00F3B40F0006
:10405000F3B40F00F3B40F00F3B40F00F3B40F0088
:10406000F3B40F00F3B40F00F3B40F00F3B40F0078
:10407000F3B40F00F3B40F00F3B40F00F3B40F0068
:10408000F3B40F00E1740F00F3B40F00F3B40F00AA
:104090009D750F00F3B40F00DD4B0F00F3B40F005C
:1040A000F3B40F00F3B40F00F3B40F00F3B40F0038
:1040B000F3B40F00F3B40F00000000000000000094
:1040C000F3B40F00F3B40F00F3B40F00F3B40F0018
:1040D000F3B40F00F3B40F00F3B40F0021870F0007
:1040E000F3B40F00F3B40F00F3B40F0000000000AE
:1040F00000000000F3B40F0000000000F3B40F0054
:1041000000000000000000000000000000000000AF
:10411000000000000000000000000000000000009F
:10412000000000000000000000000000000000008F
:10413000000000000000000000000000000000007F
:10414000000000000000000000000000000000006F
:10415000000000000000000000000000000000005F
:10416000000000000000000000000000000000004F
:10417000000000000000000000000000000000003F
:10418000000000000000000000000000000000002F
:10419000000000000000000000000000000000001F
:1041A000000000000000000000000000000000000F
:1041B00000000000000000000000000000000000FF
:1041C00000000000000000000000000000000000EF
:1041D00000000000000000000000000000000000DF
:1041E00000000000000000000000000000000000CF
:1041F00000000000000000000000000000000000BF
:104200000348044B834202D0034B03B11847704765
:10421000A4820020A4820020000000000548064B74
:104220001B1AD90F01EBA301491002D0034B03B1B4
:1042300018477047A4820020A482002000000000DC
:1042400010B5064C237843B9FFF7DAFF044B13B1DE
:104250000448AFF300800123237010BDA482002026
:104260000000000060BB0F0008B5054B1BB10549FD
:104270000548AFF30080BDE80840FFF7CFBF00BF9F
:1042800000000000A882002060BB0F00A3F5803A68
:10429000704700BF174B002B08BF134B9D46FFF71D
:1042A000F5FF00218B460F461348144A121A00F0FE
:1042B00039F80E4B002B00D098470D4B002B00D047
:1042C00098470020002104000D000D48002802D06E
:1042D0000C4800F009F900F077F82000290000F000
:1042E00087FA00F011F800BF00000800000000008D
:1042F0000000000000000420A48200209CCC0020CC
:10430000E9440F00F5440F0008B50021044600F011
:1043100091F8034B1B6803B19847204600F03EF923
:10432000C0820020830730B547D0541E002A3ED0FB
:10433000CAB2034601E0013C39D303F8012B9D07C3
:10434000F9D1032C2CD9CDB205EB05250F2C05EBAB
:10435000054535D9A4F1100222F00F0C03F1100E1F
:10436000E6444FEA121C1A46156055609560D56008
:1043700010327245F8D10CF1010214F00C0F03EB6E
:10438000021204F00F0C13D0ACF1040323F003036A
:104390000433134442F8045B9A42FBD10CF003044B
:1043A0002CB1C9B21C4403F8011B9C42FBD130BDA7
:1043B00064461346002CF4D1F9E703461446C0E7DF
:1043C0001A46A446E0E700BF70B50F4B0F4DAB4255
:1043D000A3EB050607D0B610002455F8043B0134C2
:1043E0009847A642F9D807F091FA094D094B5E1B90
:1043F000AB424FEAA60606D0002455F8043B013430
:104400009847A642F9D870BD988200209882002073
:1044100098820020A0820020704700BF704700BF34
:10442000024B13B1024800F05FB870470000000073
:10443000F5440F002DE9F04F294BDFF8A88083B039
:1044400083461868CDF804B00F46FFF7E5FFD8F8AB
:1044500000609EB14FF001094FF0000A7468651EBC
:104460000CD4013406EB84047FB1D4F80031BB4294
:104470000BD0013D6B1CA4F10404F5D1184B186856
:1044800003B0BDE8F04FFFF7C9BF73682268013B76
:10449000AB420CBF7560C4F800A0002AE9D0D6F882
:1044A0008811D6F804B009FA05F30B420BD19047F6
:1044B0007368D8F800205B4501D19642D9D0002A14
:1044C000DCD01646CAE7D6F88C01D4F88010034237
:1044D00002D101989047EBE708469047E8E700BF14
:1044E00000800020C8820020002301461A4618469A
:1044F00000F014B838B5074D074C2C1BA41005D09C
:10450000013C55F8043D9847002CF9D1BDE83840EE
:1045100007F002BAA4820020A08200202DE9F8430F
:104520001B4D0646286898460F469146FFF774FFD4
:10453000184B1C681CB3286865681F2D22DC4EB917
:104540006B1C0235636044F82570FFF767FF00209D
:10455000BDE8F88304EB85010123C1F88890D4F805
:104560008821AB401A43022EC4F88821C1F8088183
:10457000E6D1D4F88C211A43C4F88C21E0E7064C2C
:104580001C60D8E7FFF74AFF4FF0FF30E0E700BFBD
:1045900000800020C8820020CC820020FEE700BFFF
:1045A00010B50C46E0B90968C1B10E48814207D088
:1045B000431A3B2B0ED83C23CA5CC254013BFBD2AE
:1045C000084800223C2103F0D9FA074B1880002349
:1045D000236010BD3C2207F00AF8F1E70E23F7E74D
:1045E0000123F5E7827F0020807F0020074A6FF0DB
:1045F00002039E4502D1EFF3098101E0EFF3088148
:104600008869A0F102000078104700BFA1450F00A3
:1046100038B50446A8B13C210C48002203F0AEFA9C
:104620000B490B8883420ED1084A02F13C0052F834
:10463000045B44F8045B8242F9D101330B80002013
:1046400038BD0E20FCE70B20FAE700BF827F002078
:10465000807F00200B2970B50446154608462FD9E7
:104660002389053304EB43012044431ADAB2012ABB
:1046700026D9814224D8134806F0B9FF2388522B4B
:1046800006D1AB0711D062884CF668639A420CD011
:104690000F2014E034F8022F824204D0AE899642F3
:1046A00003F1010308D1002009E034F8081F0023BA
:1046B0004FF6FE704FF440559942EBD80B2070BD79
:1046C0000920FCE75C84002008B5002203F056FABC
:1046D000034B1B88834214BF0B20002008BD00BF82
:1046E0005C84002038B50C4C21684B1C054612D068
:1046F0000A484FF4805206F050FF48B115B12068C7
:1047000000F04EFD054920684FF4806200F068FD1E
:104710004FF0FF33236038BD048000206884002000
:104720002DE9F041DFF84480044624F47F65184603
:10473000D8F8003025F00F05AB420E46174609D0D9
:10474000FFF7D0FF0848C8F800504FF480522946C0
:1047500006F04DFF0448C4F30B043A4631462044AA
:10476000BDE8F04106F043BF6884002004800020CB
:10477000BFF34F8F0549064BCA6802F4E06213434A
:10478000CB60BFF34F8F00BFFDE700BF00ED00E03F
:104790000400FA054BDF704710DF704711DF7047E8
:1047A00013DF704718DF704760DF704769DF7047BD
:1047B00061DF70471FB50023CDE9013303936846DD
:1047C00002230093FFF7EEFF05B05DF804FB08B588
:1047D0004FF0E023D3F8F03DDB0700D500BEFFF734
:1047E000C7FF0000014B1878704700BF6A94002093
:1047F0002DE98048B04B4FF4006289B0C3F84025E2
:1048000000F0E0FA00F030FF002000F07DFB00F047
:10481000B9FF48B1052000F077FB00F0C5FF00F0BC
:10482000E9FF062000F070FB4FF08042DFF8B09205
:10483000D2F81C75A14EDFF8AC82B12F0CBF01235A
:10484000002389F800300ED0A82F0CD0002434703B
:10485000D2F800544E2F05F0010301930FD1C2F896
:104860001C45012409E001233370D2F8005405EA05
:10487000030101910024C2F81C45012537E0572FA0
:10488000F9D0D8F8003019688D4B994201D1019BBD
:104890001BBB6D2F26D14FF080430022C3F81C258F
:1048A00000F09EFB00F040FEA8B100F06BFF90B955
:1048B0004FF440535A68834B9A4206D199F800301E
:1048C0000BB9FFF777FFFFF769FFD8F80030002238
:1048D0001A6000F02BFFFFF74BFF6D2FC2F81C454D
:1048E000DED0CAE7282000F093F90024054632788C
:1048F0002ABB282000F08CF910B1072000F088F9BD
:1049000000F00100307000F00FFEDFF8B8B1DFF802
:10491000D8A10246A8B185B9D8F8001008686A493C
:10492000884223D04FF44051496859450FD04FF485
:104930008053D3F80032534515D1134617E00120B8
:10494000DEE74FF440514968594540F0B1804FF4DB
:104950004051896801F500710968514500F0D68021
:10496000002D40F0D380002A40F0C08000234FF497
:1049700040514868584508BF8968D8F800000CBF06
:1049800001F500714FF490510D684F49554518BF1E
:10499000002101600BB9002A82D13378002B00F08E
:1049A000BB80082000F0B0FA99F800300BB9FFF78F
:1049B00001FF01234FF4742089F80030FFF7F0FE67
:1049C000424B43491868039003A8FFF7E5FE4149AD
:1049D00091F81623EC2352091341DB0708D53E4B0F
:1049E0009A68002A00F094801A6842F480021A60E3
:1049F0003A4B04930C22002105A8FFF793FC40F2E8
:104A00000113049A059305A94020FFF7CFFE0C225D
:104A1000002105A8FFF786FC9DF81430049A43F0A6
:104A2000010305A9A0208DF81430FFF7BFFE0C226A
:104A3000002105A8FFF776FC01241723049AADF89E
:104A4000163005A923208DF81440FFF7AFFE0C2285
:104A5000002105A8FFF766FC0623049A8DF8144090
:104A600005A920208DF81640ADF81830FFF79EFEFE
:104A700004A8FFF799FE4FF4405330785A685A451E
:104A80000ABF9B684FF4905303F500731B685345AE
:104A900003D0572F01D04E2F45D1012240F6B83117
:104AA00000F0FAFD3378002B40D0FFF777FEF7E6F1
:104AB0004FF4905150E700BF00A000406A940020DE
:104AC000D51A5A00DBE5B1517E67E54E36B90F00C5
:104AD000CF470F0000E100E0449B00200080002051
:104AE00068940020088000207CB0EE87019B002B9A
:104AF0003FF43CAFD8F800300E4919600E4B0192DC
:104B00000E4843F001039847019A2FE701232EE74F
:104B10004FF480030B606BE7022000F0F5F92046AC
:104B200003F002FEA7E700221146B9E703F04CFEAE
:104B3000B6E600BFD51A5A0030B90F000048E801A8
:104B400010B58EB03423ADF802300DF10201002310
:104B500001A8ADF80430FFF72BFE044640B9BDF8BC
:104B60000430102B07D0112B0CD001A801F0D6F87F
:104B700020460EB010BD054B01221A70072000F030
:104B8000C3F9F2E7014B18700820F8E76994002098
:104B900013B5002301A80193FFF7FCFD044660B99B
:104BA000019802F049FB019B0A2B09D0092B09D07F
:104BB0000B2B02D1012004F091FC204602B010BD65
:104BC0002046F8E70220F6E708B5FFF7B9FF052809
:104BD000FBD1FFF7DDFF0528F7D108BD0021024A10
:104BE000084602F0F1BE00BFC94B0F001F2884BF6A
:104BF00000F01F00044B054A98BF4FF0A04300F59A
:104C0000E07043F820207047000300500C000300C0
:104C10001F288ABF064B4FF0A04300F01F00D3F8B7
:104C2000103523FA00F0C04300F00100704700BFC8
:104C3000000300507047704700234FF0FF3283603D
:104C4000C0F80035C0F86025C0F86425C0F86825B4
:104C5000C0F86C2540F2FF32C0F80435C0F80825D2
:104C6000C0F80C35C0F81035C0F81435C0F8203540
:104C7000C0F82435704700001F4B1F294FF0000279
:104C800030B5C3F800258BBF01F01F0201F5E072BB
:104C90001A4B4FF0A04388BF02F5E0754FF00304B4
:104CA00096BF43F8224043F825400A46012404FAFF
:104CB00002F2C3F80C2500F5AC700F4B002243F84C
:104CC0002010FF21C3F804250220C3F80815042191
:104CD000C3F80C15C3F810050948C3F81425C3F828
:104CE0002005C3F82415C3F82825C3F82C25C3F8DC
:104CF0000045C3F8102130BD00C001400003005042
:104D0000FC9600200148FFF797BF00BF00C001409C
:104D1000074B23F81010074B002282B0C3F8102174
:104D2000D3F810210192019A01229A6002B07047D3
:104D3000FC96002000C001400B4A0C4B11681B6818
:104D4000B1FBF3F203FB1211B1EB530F4FEA530225
:104D500088BF591A4F235943B1FBF2F1C1F1FF014A
:104D600089B20020FFF7D4BF04970020F8960020F6
:104D7000024A136801331360FFF7DEBF0497002077
:104D80000F4B00221421C3F80C25C3F80425C3F8E7
:104D90000815C3F81425C3F81025C3F82825C3F84F
:104DA0002C250C22C3F860254FF0FF32C3F8642590
:104DB000C3F86825C3F86C250122C3F800257047A5
:104DC000001002404FF0804310B501220024DA6049
:104DD0002820C3F818459A60FFF708FF0720FFF75F
:104DE00005FF184B4FF4C85043F0010398470D21BD
:104DF0002046FFF741FFFFF7C3FFFFF71BFF124AF3
:104E00001E21082002F0BCFD08B102F06FFE02F086
:104E100019FD0E490E4BE02081F823001B684FF46A
:104E20007A72B3FBF2F3013BB3F1807F08D24FF00B
:104E3000E0225361002381F823009361072313616B
:104E400010BD00BF40B90F006C94002000ED00E0E1
:104E50000C800020F0B585B043788DF8043083785D
:104E60008DF80530037826488DF80630182148F271
:104E7000060748F20D0CA1F1180301AE9BB21A46C9
:104E800016F801EB083380259BB21EEA050F0CBF14
:104E90003C46644620F81240541CA4B2A3424FEA98
:104EA00055052AD18B42EAD103F1180189B2602954
:104EB000E1D102324FF4004192B220F81310114BAD
:104EC00020F812104A22C3F82005C3F82425002236
:104ED000C3F81021D3F810210292029A01229A609D
:104EE000D3F81021002AFBD00022C3F81021D3F8F8
:104EF00010310393039B05B0F0BD2246C5E700BF08
:104F00005C9600200010024013B5214900230C6874
:104F10000094019308281AD8DFE800F00C050C195A
:104F2000191308292B004FF47F430093194B40F6C7
:104F3000B8320BE04FF47F0300934FF49672154B99
:104F400004E04FF47F030193124B64221A60009B2C
:104F50001148019A0340009372B102400F4B019235
:104F600001221A7001A8FFF775FF02B010BDFF23E0
:104F7000DBE74FF0FF13DFE79C4202D00B6068468F
:104F8000F1E7064B1B78002BEFD00148EBE700BFA1
:104F9000F4960020F896002004040400F096002007
:104FA00013B50C4B0C4C1A889B78ADF804208DF887
:104FB000063044F001044FF44860A04701A8FFF711
:104FC00049FF4FF44860A0470448FFF735FE02B0A0
:104FD00010BD00BF46B90F0040B90F0000100240DD
:104FE0004FF0E02310B500241C61FFF78BFEFFF7A4
:104FF000D7FF184B18484FF40032C3F8802003F154
:10500000C04303F53C534FF48032C3F84823C3F840
:10501000082301225A609A604FF080430221DA602F
:1050200023464FF0A0441F2B03F1010205DC03F5DA
:10503000E07344F823101346F5E703F01F0303F56C
:10504000E073302A40F823101346ECD1FFF7F3FD4C
:1050500010BD00BF00E100E00003005000F18043FC
:1050600082B01A68002A14BF0120002004D0002258
:105070001A601B680193019B02B070470F4A1378B6
:10508000D3B903784FF08041C3F34003C1F88035B2
:10509000037803F00103C1F87835094B1968C90793
:1050A00006D4E02183F800130121C3F880111960B0
:1050B0000123044813707047034870471497002079
:1050C00000E100E00000AD0B0C00AD0B014B0268ED
:1050D0001A607047089700204FF080434FF46072C9
:1050E000C3F804237047000010B54FF08043D3F895
:1050F0000443620707D54FF48470FFF7AFFF10B188
:105100001E4B1B689847A30608D54FF48A70FFF71B
:10511000A5FF18B11A4B00201B689847600608D5F8
:105120004FF48C70FFF79AFF18B1154B01201B68E4
:105130009847210608D54FF48E70FFF78FFF18B1FE
:10514000104B00201B689847E20508D54FF490707B
:10515000FFF784FF18B10B4B01201B689847A3058C
:105160000AD54FF49270FFF779FF28B1054BBDE8DF
:1051700010401B680220184710BD00BF1097002088
:105180000C97002008970020044AD2F80034DB076F
:10519000FBD50160BFF35F8F704700BF00E00140A7
:1051A0004FF080531A69B0FBF2F302FB130373B99B
:1051B000084B0222C3F80425C3F80805D3F80024DD
:1051C000D207FBD500220448C3F8042570470348E2
:1051D000704700BF00E001400000AD0B0A00AD0BBE
:1051E000F8B50B4B1546012206460F46C3F80425B9
:1051F0000024A54204D1064B0022C3F80425F8BDC3
:1052000057F8241006EB8400FFF7BEFF0134F0E7E7
:1052100000E00140BFF34F8F0549064BCA6802F416
:10522000E0621343CB60BFF34F8F00BFFDE700BFC9
:1052300000ED00E00400FA054FF08053D3F8302170
:10524000082A03BFD3F83401B0FA80F040090020E7
:105250007047000008B54FF08053D3F83021082A7A
:105260004ED14FF080420021C2F80C11C2F810114B
:10527000C2F8381502F54042D3F80414C2F82015DC
:10528000D3F80814C2F82415D3F80C14C2F8281562
:10529000D3F81014C2F82C15D3F81414C2F8301532
:1052A000D3F81814C2F83415D3F81C14C2F84015FA
:1052B000D3F82014C2F84415D3F82414C2F84815C2
:1052C000D3F82814C2F84C15D3F82C14C2F8501592
:1052D000D3F83014C2F85415D3F83414C2F860155A
:1052E000D3F83814C2F86415D3F83C14C2F8681522
:1052F000D3F84014C2F86C15D3F84434C2F87035B2
:10530000FFF79AFF18B1494B494AC3F88C26FFF7BB
:1053100093FF18B1474BFB22C3F81825FFF78CFF0A
:1053200070B14FF080414FF08053D1F8E42ED3F8A4
:10533000583222F00F0203F00F031343C1F8E43E8A
:10534000FFF77AFF20B13C4B4FF40072C3F84026C0
:105350004FF08053D3F83031082B09D14FF0804300
:10536000D3F80024D10744BF6FF00102C3F8002432
:10537000324AD2F8883043F47003C2F88830BFF361
:105380004F8FBFF36F8F4FF01023D3F80C22D2074B
:105390001DD52B4B0122C3F80425D3F80024002A85
:1053A000FBD04FF01022D2F80C3223F00103C2F8E8
:1053B0000C32234BD3F80024002AFBD00022C3F880
:1053C0000425D3F80024002AFBD0FFF723FFD3F8ED
:1053D0000022002A03DBD3F80432002B22DA184B18
:1053E0000122C3F80425D3F80024002AFBD04FF093
:1053F00010221221C2F80012D3F80024002AFBD098
:105400004FF010231222C3F804220D4BD3F80024CE
:10541000002AFBD00022C3F80425D3F80024002A78
:10542000FBD0D2E7074B084A1A6008BD0050004085
:105430004881030000F000400090024000ED00E0D1
:1054400000E001400C8000200090D00313DF704783
:1054500018DF7047064B10461A78012A03D101293C
:1054600004BF02221A7008B102F040BB704700BFAF
:105470005997002008B5FFF7B5F988B111481C21EC
:1054800001F06CFF08B102F031FB0F490D48002319
:105490001C2201F053FF98B1BDE8084002F026BB82
:1054A0004FF47F20FFF77CFE072207494FF47F204F
:1054B000FFF796FE054B1A78012A04BF02221A70E4
:1054C00008BD00BF5C970020189700205997002066
:1054D00070B5124C124D134ED4F800347BB1C4F8A1
:1054E0000056C4F80456C4F80856C4F80C56C4F85C
:1054F0001056C4F81456C4F81856C4F81C5602F0D6
:10550000C7FA05F096FF20B104F0B4FD002005F0C5
:10551000BDF93378023B022BDED870BD000001409C
:105520003546526E599700200120704784B02DE90E
:10553000F34108AC84E80F009DF82040BDF82280BC
:1055400001A80F4616461D4600F082F984B9354B76
:105550000122FF21A3F802809D601A809980324BBE
:105560001A70FFF787FF02B0BDE8F04104B0704742
:10557000013C052CF7D8DFE804F003231548395126
:10558000284BBA192A449A60A5221A80C3E90376E7
:10559000FF229A800C9AA3F802805D619A61224BE7
:1055A0000122DDE7019A1F4B11881980518892680A
:1055B0009A60AA22C3E9037659809A805D61EEE77A
:1055C000019A184B1188A5290AD100229A60FF225E
:1055D0001A60FF229A800022C3E903225A61DEE7A3
:1055E00019805188926859809A60F2E7FFF7FAF8BB
:1055F00040B100F09DFD08B102F078FA0A4B032299
:105600001A70B0E700F01EFAF5E7064B00229A6028
:10561000FF221A60019A92889A80A2E7024B042224
:10562000EEE700BF189700205997002000B50C4BFB
:105630001B7889B063B90B4B1B786BB905238DF8C8
:105640000C30079B009303AB0FCBFFF76FFF03E01A
:1056500004F00AFB0028EED009B05DF804FB00BF9F
:1056600058970020349700201FB50023CDE902335E
:10567000074B019301F032FE30B906494FF47F2306
:1056800001A84B6001F048FE05B05DF804FB00BFC7
:1056900055540F005C97002070B51F4B06460D4611
:1056A000AAB138B901221A7000F0BAFF0446B0B1AD
:1056B000204670BD00221A7000F0B2FF0446002898
:1056C000F6D100F091FC0446FFF702FFF0E71A70F4
:1056D00000F0A6FF04460028EAD1002EF1D1C5B1A2
:1056E00000240E4B0E4A0F481C70214602F0DAF8D7
:1056F0004FF400464FF4FA7021464FF47A720023BB
:10570000E5FB060105F08AFF22460146064802F045
:10571000DBF800F073F9D6E75897002034970020A3
:105720002D560F0058B90F00389700201FB5134BA6
:105730004FF0FF32C3F88020C3F880214FF440536C
:105740000F4A596891420DD19C682046FFF77EFEB2
:1057500010B14FF000531C60204604B0BDE810406B
:1057600000F09AB80023CDE902334FF480540623A9
:105770006846CDE90034FFF76BFEE9E700E100E0A1
:10578000DBE5B15107B501A800F062F8019B1A886A
:10579000A52A07D09888A0F1AA035842584103B01F
:1057A0005DF804FB0120FAE710B501F051F9A8B14A
:1057B0000E4B0F4843F00103984701F0B3F808B1CE
:1057C00002F094F901F044F908B102F08FF901F008
:1057D000F5F8044630B102F089F904E001F012F95D
:1057E0000028E5D10024204610BD00BF50B90F00AD
:1057F00000A8610000B589B003AB1422002118464F
:10580000FEF790FD02228DF80C20002200920FC8B6
:10581000FFF78CFEFFF75CFE002009B05DF804FB8B
:1058200013B5044601A800F013F8019B1A882280E2
:105830005A8862809A68A2609A88A280DA68E260D8
:105840001A6922615A6962619B69A36102B010BD45
:10585000014B0360704700BF00F00F00F0B5034636
:10586000186880F308885868FF2464B2EFF3058550
:10587000002D01D1A64600472546064621273FBAFE
:10588000F0B40024002500260027F0B4F92040B22F
:10589000004700BFF0BD00BFFFF7E0BFF7B5002332
:1058A0000DF1020101A8ADF80230019302F0A0FD54
:1058B000019C0346204613B15CBB03B0F0BD2678C3
:1058C0003EB3174A92F83010032922D04FF00C0C47
:1058D0000CFB03F557195159C1B992F830305651A4
:1058E0000133DBB282F83030BDF802300D4A9B083C
:1058F000013B043408467B60BC6002F065F8034657
:1059000001980028D9D0002BD7D002E00133042B16
:10591000DED102F089FD0028CFD002F0E7F8CCE715
:10592000649700206D590F00084609B102F0DEB8F7
:105930007047000010B50C2343430B4AD418D158CC
:10594000A06879B192F830100139C9B282F83010EC
:1059500004380021C4E90111D15002F065FD08B1FD
:1059600002F0C4F8002010BD64970020214B70B5F0
:105970000122214E1A7096F8303003B970BD1E4CCA
:105980000025236883B1013B042B07D8DFE803F02F
:105990001C0612032800204600F0D4FEE8B2FFF7F0
:1059A000C9FF08B102F0A2F80135042D04F10C047E
:1059B000E7D1E0E7A3686360204600F067FE0028B7
:1059C000ECD002F093F8E9E7204600F043FF00F046
:1059D0001FFF08B102F08AF80520FFF795FADDE70E
:1059E00000F064FF00F082FFBDE870400620FFF782
:1059F0008BBA00BF349700206497002008B50E4B87
:105A0000002283F8302011460132042AC3E9011133
:105A1000196003F10C03F7D1084800F031FE02F0E1
:105A20007FFC08B102F062F8054802F065FC08B19D
:105A300002F05CF8002008BD6497002029590F008F
:105A40009D580F0008B50020FFF774FF0120FFF7F5
:105A500071FF0220FFF76EFF0320FFF76BFFBDE829
:105A6000084002F0A5BC006870476CDF70476DDF2E
:105A700070476EDF70476FDF704772DF704773DF0C
:105A8000704774DF704776DF704777DF70477ADFE3
:105A900070477CDF70477FDF704786DF70478FDF9E
:105AA000704790DF7047AFDF7047B0DF7047B1DFFE
:105AB0007047B2DF7047B5DF704764DF704766DF5D
:105AC00070470C280AD8DFE800F00709090909091E
:105AD0000B091409090F0D000120704706207047BB
:105AE0000320704704207047042914BF06200520B6
:105AF00070470220704701F0F9BF10B50446084610
:105B00000321FFF7DEFF0246204601F05BF918B1E2
:105B1000BDE8104001F0EABF10BD00000346032BB2
:105B200010B50846144620D0042B23D169B1124B7E
:105B300018884FF6FF7398421CD01321FFF7A3FF7C
:105B4000C0B1BDE8104001F0D1BF104602F072F8BC
:105B500008B101F0CBFF094B1B689C420AD101221E
:105B60000321074801F02EF9EAE70121FFF7A9FF19
:105B70000246F6E710BD00BF18800020D097002035
:105B800028980020F8B50A4DAB889E181D2E1446A3
:105B90000DDC2F68FE1802F1010C07F803C07070CD
:105BA000B01C05F024FDAB8802331C44AC80F8BD6A
:105BB000B8970020F0B54D4E347893B0002C40F0EB
:105BC00091804B4D102221462846FEF7ABFB494BF6
:105BD0002B60182221460CA8FEF7A4FB01238DF8A8
:105BE000303028230E93444B1B78002B7CD0434B42
:105BF00002AC03F1100518685968224603C2083345
:105C0000AB421446F7D13E48102202A905F0C5FC6C
:105C1000002869D03B483C4C04600121FFF729FF74
:105C200008B101F063FF364B06AA03F1100C1746CA
:105C300018685968154603C5083363452A46F7D1E5
:105C40002068A2880A903148A379ADF82C20002161
:105C500001228DF82E300760FFF70DFF08B101F02B
:105C600045FF03238DF8443004238DF8063041F2BC
:105C70003053ADF80830264B06AA9B798DF80A30D0
:105C80000DF1070102A8FFF718FF012210460DF1E0
:105C90000601FFF777FF1F4805F0B7FC1D49C2B2A8
:105CA0000920FFF76FFF102206A90620FFF76AFF01
:105CB0000F4919480CAAFFF7E0FE08B101F016FFE2
:105CC000154C042221780120FFF7DFFE08B101F016
:105CD0000DFF20780121FFF7D2FE08B101F006FF89
:105CE0000123337013B0F0BD0623BEE712980020E5
:105CF000B897002098970020D497002091B90F0002
:105D0000DD970020CC970020D6970020C897002070
:105D1000289800205CB90F0010800020F0B50446E0
:105D20000146B1B0A64801F081F82388262B3BD864
:105D30000F2B04D8012B00F0CC8031B0F0BD103B0C
:105D4000162BFAD801A252F823F000BFD55D0F0040
:105D5000E35D0F003B5D0F00155E0F000F5F0F004E
:105D60003B5D0F003B5D0F003B5D0F003B5D0F0097
:105D70003B5D0F002B5F0F003B5D0F003B5D0F0095
:105D80003B5D0F003B5D0F003B5D0F003B5D0F0077
:105D90009D5F0F003B5D0F008F5F0F003B5D0F00AD
:105DA0003B5D0F00955E0F00513B9AB2052AC4D8A7
:105DB000052BC2D801A252F823F000BFDF5E0F000E
:105DC0002B5F0F003B5D0F003B5D0F00AF5F0F00CF
:105DD0007B5E0F007B4BA2881A807B4B00221A70DF
:105DE000ABE78023774CADF82430784B2088322203
:105DF0001A6010A9012309AAFFF75BFE08B101F0A0
:105E000075FE734B1B780BB9FFF7D4FE4FF6FF738B
:105E1000238092E76F4B03AC9A79186899888DF8C4
:105E200022200790DA1DADF820101733264610689F
:105E30005168254603C508329A422C46F7D1664B75
:105E400009AA03F11807154618685968144603C4CF
:105E50000833BB422246F7D11868206059485F4A90
:105E6000008810AB8521CDE91456FFF714FE0028F9
:105E70003FF463AF01F03AFE5FE7A379002B7FF4B4
:105E80005CAF504B13211888FFF7FDFD00283FF44D
:105E900054AF77E0237A012B7FF44FAF4A4B0022B7
:105EA0001A704A4B19680139196069B910AB14228C
:105EB0001846FEF737FA05228DF84020149A009212
:105EC0000FC8FFF733FB38E731B0BDE8F040FFF70C
:105ED00071BE3C4B00211888FFF7F1FDD6E7A3798E
:105EE000002B3FF42AAFA27B043A022A3FF625AFEB
:105EF000022B18BF01238DF840304FF4C173ADF869
:105F00004430304B10A91888FFF7CFFDAFE7314A76
:105F1000258A508D02F118010023854218BF1946C9
:105F20000732A088FFF7B9FDB0E7264C20884FF66E
:105F3000FF75A84225D02A4B1B78EBB129490123D4
:105F40000822FFF7B4FDE8B9024601460223208883
:105F5000FFF7ADFDB0B920882A460C21FFF7A3FD5D
:105F6000A0F54053023B012B7FF6E7AE08283FF433
:105F7000E4AE11288AD1E0E61A461946FFF797FDEC
:105F800084E7082031B0BDE8F04001F0AFBD0D4B13
:105F9000002218881146FFF784FD77E70023ADF84B
:105FA0004030084B10A91888FFF779FDC5E6E18855
:105FB000044B1729188828BF1721FFF77CFD65E7D8
:105FC00028980020188000201298002014800020BB
:105FD00014980020D6970020EE97002058980020B3
:105FE000D49700200A98002030B5434A4348002344
:105FF0001370434A95B0137000F042FB01F0DAFDD4
:106000000446002861D13F48FEF702FB00285FD11B
:106010003D4B01221A7011233C488DF8043005F0E5
:10602000F4FA3A4982B201A8FFF733FD08B101F052
:106030005DFD0822002104A8FEF774F9344A4FF0F0
:10604000C87304A8CDE90423FFF721FD08B101F0CE
:106050004DFD00210C2201A8FEF764F90823ADF8DC
:1060600004302C4B02932C482C4B039301A900F0D5
:106070002DFD08B101F03AFD294D4022002104A870
:10608000FEF750F9284605F0C0FA0595254DADF804
:106090001000284605F0B9FA0795234DADF8180011
:1060A000284605F0B2FA1123ADF8300004A8ADF887
:1060B0004C300D9500F0CEFF1C4B30221A70072299
:1060C0005A7010229A70FFF775FD204615B030BD4A
:1060D00004A8FFF7CCFC08B101F008FD9DF81130D1
:1060E00004A801338DF81130FFF7BFFC002892D0CF
:1060F00001F0FCFC8FE700BF149800201D5B0F002F
:1061000025980020D6970020D49700205CB90F0076
:106110000800180081610F0028980020F75A0F002E
:1061200063B90F0067B90F0075B90F0058980020C8
:1061300010B50F4B01221A700E4B18884FF6FF73E3
:10614000984207D01321FFF79EFC08B101F0CEFC66
:10615000002010BD084C2378002BF9D0074B18788D
:10616000FFF78FFC08B101F0C1FC00232370EFE7BB
:106170001498002018800020129800201080002021
:10618000F0B50B7889B005460C46092B35D8DFE809
:1061900013F02D00360041000A0019002600070107
:1061A00010014400150100F081FB0421FFF789FC78
:1061B0000246284600F006FEF8B109B0BDE8F040FE
:1061C00001F094BCFFF7B4FF08B101F08FFC00F0C0
:1061D0008DFB90B109B0BDE8F04000F095BBFFF732
:1061E000A7FF0028F6D001F081FCF3E7764B0122EF
:1061F0001A704B681A78754B1A7009B0F0BD724B63
:1062000002261E704B681B78012BF6D100F000FBB4
:106210003146CBE76C4B0322EEE70520FEF774FE18
:10622000694B1E78022E37D0032E59D0012EE4D1AF
:1062300004AB102218460021FEF774F8634A237A53
:1062400012788DF81020002203920C2B4FF00302DD
:10625000CDE9012008D03146284600F0B3FD0028E2
:10626000CBD001F043FCC8E763681846FFF7FBFB9F
:106270000590181DFFF7F7FB069003F10800FFF7E4
:10628000F2FB079001A800F001FA0028B5D03146D2
:10629000FFF717FC0246DFE7237A13F0030011D063
:1062A000C0F104021A44D2B219464FF0000C0E4657
:1062B00001316768C9B2914207F806C0F7D11B1ACD
:1062C000043323720123049363680693237A04A89A
:1062D0009B08059300F0BEFA00288ED00221D7E774
:1062E000207A830702D03246314662E7384E019069
:1062F000314601F075FC014618B12846FFF7FDFB59
:106300007BE76168019A306805F071F9019801F046
:10631000CDFC01460028F0D101A9304601F0D6FCA1
:1063200001460028E9D104230493019B9B080593AF
:1063300004A83368069300F005FA074640B9254AD9
:10634000237A11680B441360234B32681A6054E7B8
:1063500009281BD11F4B217A1A68114419601F4B61
:106360001B78002B3FF449AF1D4C2388013B9BB2A7
:106370002380002B7FF441AF284600F0E9FC08B1F0
:1063800001F0B4FB174B1B88238036E7306801F01F
:1063900051FC014610B12846FFF7AFFB3946ACE788
:1063A0000E4B01221A700F4A8B8813800C4A1380FF
:1063B00023E70A4A002313700A4AF8E7054B1968D5
:1063C00000F08AFCF8E600BF259800202498002001
:1063D0001898002020980020D097002013980020C3
:1063E0001C9800201E98002018DF70470129F8B57E
:1063F0000D4614461E4607D0032912D00CB3204682
:10640000BDE8F84001F072BB0E4B1B78052BF5D1AF
:106410000D4B1B68002BF1D03246214604209847D3
:10642000ECE7084F3B78022BE8D1084B5B689847B4
:10643000054B3D701B68002BE0D0324621462846B4
:10644000EDE7F8BDD49800206C98002060980020FB
:1064500030B589B003AC142200212046FDF762FF5D
:10646000094B1B88ADF80E30084BDB6806930025FE
:10647000079B8DF80C50009394E80F00FFF756F837
:10648000284609B030BD00BF7C980020C09800208D
:1064900000B589B003238DF80C300A4B1B88ADF88A
:1064A0000E30094B5A6804929A68DB680693079B82
:1064B0000093059203AB0FCBFFF738F8002009B02B
:1064C0005DF804FB7C980020C098002000B589B0DE
:1064D00001238DF80C300F4B0F4A1B88ADF80E309E
:1064E0004FF440535968914208BF9A680B4B596862
:1064F000049118BF4FF480529968DB6806930591A8
:10650000009203AB0FCBFFF711F8002009B05DF844
:1065100004FB00BF7C980020DBE5B151C09800204F
:1065200000B589B003AB142200211846FDF7FAFE2E
:1065300004228DF80C20002200920FC8FEF7F6FF0F
:1065400009B05DF804FB0000194BF7B5194D1D604B
:10655000194B02221A70FEF745F9184B044648B150
:106560001968284600F0FAFEF8B103B0BDE8F04023
:1065700001F0BCBA1D68124F013D2D0B01354FF4DF
:1065800040567368BB420CBFB0684FF4805000EBBC
:1065900004300134FEF704FEA542F2D8002305487A
:1065A00000931A460321FFF721FF03B0F0BD00BF9F
:1065B0007098002074980020D4980020D098002073
:1065C000DBE5B151F0B51F4685B00323CDE90030BE
:1065D0000546960868460C4602910396FFF704FFAD
:1065E000E0B1B4F5805F11D801236846CDE90035EC
:1065F000CDE90246FFF7F8FE80B903236846CDE9EE
:106600000035CDE90246FFF7EFFE07E03B463A468C
:10661000E11BE81BFFF7D6FF0028E5D005B0F0BD71
:106620001FB5104B0193104B104900241C70104BE8
:1066300001A8CDE902441C8000F06EFE70B94FF451
:1066400040530C4A59689142084A0CBF9B684FF46A
:1066500080535360084B00221A600124074B1C70C2
:1066600004B010BDED630F007E98002074980020E8
:106670007C980020DBE5B151D8980020D498002008
:10668000014B1860704700BF6C98002038B5436814
:10669000224C0FCB84E80F002378590701D59A07C5
:1066A00035D16068850732D1A26891072FD1E168A2
:1066B00011F003042BD1104408441949B2F5204FBE
:1066C000086026D84FF44052164955688D420ABFDB
:1066D00092684FF46922C2F56A22904219D8DA070B
:1066E00013D4114A13F0020F104B08BF1346104A7F
:1066F000104911601049C2E90113104B1B78012B9E
:1067000009D1FFF721FF204638BD0D4BEFE70624E6
:10671000F9E70C24F7E70824F5E700BFC09800204C
:10672000D0980020DBE5B15151640F0091640F0057
:106730006098002049650F0021650F00D498002063
:10674000CD640F002DE9F74300284FD08668B307CA
:106750004ED12A4B1B78052B4CD1294D42682B6812
:10676000DFF8A49003EB82039400D9F80020934251
:1067700006D94FF0FF332B600C2003B0BDE8F08347
:10678000FEF730F8DFF88480A0B12B68D8F800005D
:106790002246314600F0D2FD0028EED12B681C4481
:1067A000D9F800302C609C4226D1FEF71BF8D0B1FE
:1067B0000020E2E74FF44053124A59682F68914293
:1067C0000CBF98684FF4805022463146384400236D
:1067D000FDF7A6FF0094D8F80000334600220121FF
:1067E000FFF704FEDAE7FDF77DFFE1E70E20C4E7DF
:1067F0001020C2E70820C0E70920BEE7D498002097
:10680000D8980020DBE5B151D09800207098002086
:1068100070B50B4B1D6885B90A4E3378042B0CD12B
:10682000094C0A4B21781A780948FDF713FF10B973
:106830000523337070BD2570FCE70820FAE700BF20
:10684000D8980020D49800207E980020C09800207E
:106850007F980020F8B5114B1A78032A04D0042A37
:1068600004D008242046F8BD04221A700C4B1C6882
:10687000002CF6D10B4D43682F789E0007EB830365
:10688000402B09D8816808483246384404F0AFFEEE
:106890002B7833442B70E5E70924E3E7D4980020F4
:1068A000D89800207E9800207F98002010B50B4CCF
:1068B0002378052B10D10A4B0A4A1B6811689942AC
:1068C0000AD106232370084B1B685868FDF7FCFEAD
:1068D00008B90723237010BD0820FCE7D4980020D6
:1068E000D0980020D898002070980020044B1B7886
:1068F000072B02D1034B9B6818470820704700BF45
:10690000D49800206098002000B589B006238DF847
:106910000C30079B009303AB0FCBFEF707FE09B0CB
:106920005DF804FBF0B58DB005A8FEF779FF089C73
:10693000002C3ED00B9E04F58053B3422DD91E4D42
:10694000A6F5805305EA53054FF440539B689C42DB
:106950000BD869002B46A4EB450201F5805106EBEC
:106960004500FFF72FFE0DB0F0BD05F58053012760
:1069700001A8CDE90173CDE90337FFF735FD002804
:10698000F1D14FF4805301A8CDE902330197049768
:10699000FFF72AFD0028E6D1DBE70123CDE9013628
:1069A000A4084FF4805301A803930494FFF71CFD3F
:1069B000D9E72046D7E700BF00F0FFFF00B58DB054
:1069C00005A8FEF72DFF099880B1089B8BB94FF4FD
:1069D00040530B4A596891420ED19B6880080022AF
:1069E000039001A8CDE90123FFF7FEFC0DB05DF88F
:1069F00004FB0B9A1344F1E74FF48053EEE700BF1A
:106A0000DBE5B15100B58DB005A8FEF709FF099887
:106A100098B1089BA3B94FF440530C4A596891426E
:106A200011D19B680393800803214FF474220490D2
:106A300001A8CDE90112FFF7D7FC0DB05DF804FB0A
:106A40000B9A1344EEE74FF48053EBE7DBE5B151CB
:106A500010B58CB005A8FEF7E3FE0898B8B10B9C02
:106A600000F58053A34214D94FF440539B689842D9
:106A70001BD80F4BA4F5805203EA52035900A0EB38
:106A8000430201F5805104EB4300FFF79BFD0CB07E
:106A900010BD800803224FF48053049001A8CDE973
:106AA00001230394FFF7A0FCF1E70E20EFE700BFFE
:106AB00000F0FFFFA8DF7047AADF7047ADDF704727
:106AC000AEDF7047B0DF704762DF70472DE9F047F7
:106AD0000E4694B00546002800F0F880002900F02A
:106AE000F5804B68002B00F0F1804FF6FF730380B8
:106AF000774B04AA03F1100C17461868596814461E
:106B000003C4083363452246F7D141F230530DF1F7
:106B10000A0138460293FFF7D7FF0446002840F0E9
:106B2000D1802A1D02A90120FFF7C4FF04460028D6
:106B300040F0C8809DF80A30AB7101461C220DA8B8
:106B4000FDF7F0FB9DF834300E9443F004038DF80C
:106B5000343001AFAB798DF80E30214641F232531B
:106B600003223846CDE91044CDE91244ADF80C308B
:106B7000FDF7D8FB9DF8063023F01F0343F0030315
:106B8000214614224FF4885A08A88DF80630ADF833
:106B900004A00DF10C08FDF7C5FB4FF01409A888FF
:106BA0000A9405F1080308AA0DA90C94CDE90887F9
:106BB000ADF82C90FFF780FF0446002840F082805B
:106BC00001461C220DA8FDF7ADFB9DF834300E9454
:106BD00023F0180343F018038DF83430AB798DF8A7
:106BE0000E30214641F2315303223846CDE910449C
:106BF000CDE91244ADF80C30FDF794FB9DF806305A
:106C0000ADF804A023F01F0343F0130321464A46C6
:106C100008A88DF80630FDF785FB1723ADF82C305A
:106C2000A8880A9405F1100308AA0DA90C94CDE9CF
:106C30000887FFF741FF0446002843D101461C2284
:106C40000DA8FDF76FFB9DF834300E9443F002035E
:106C50008DF83430AB798DF80E30214641F2345343
:106C600003223846CDE91044CDE91244ADF80C308A
:106C7000FDF758FB1123ADF804309DF8063023F0E2
:106C80001F0343F0030321464A4608A88DF8063047
:106C9000FDF748FB02230A93ADF82C30A8880C9628
:106CA00005F1200308AA0DA9CDE90887FFF704FF25
:106CB000044638B97368AB62B36803B1EB62054B45
:106CC00001221A70204614B0BDE8F0870E24F9E7BF
:106CD000A1B90F00E398002070B5054686B070B3E7
:106CE00002884FF6FF739A422BD0174B1B7843B3A1
:106CF000164C1022080AE170207121FA02F0090EE8
:106D0000072301266071A17102A800216370ADF80C
:106D100006302270A670FDF705FB2B8AADF808300F
:106D20000023ADF80C3028888DF80A600DF10603B9
:106D300002A9CDE90434FFF7C3FE06B070BD0E20F2
:106D4000FBE70820F9E700BFE3980020DC9800206B
:106D500030B5044687B060B302884FF6FF739A429D
:106D600029D0164B1B7833B3154D11232B700B0A0A
:106D70006970AB700B0C090EEB70297105230021B3
:106D8000102202A8ADF80630FDF7CCFA238AADF840
:106D9000083001238DF80A300023ADF80C3020882C
:106DA0000DF1060302A9CDE90435FFF789FE07B00E
:106DB00030BD0E20FBE70820F9E700BFE398002074
:106DC000DC98002030B5134687B0044630B3008805
:106DD0004FF6FF72904223D0124A127802B3124D3E
:106DE000697003211022ADF8061002A80021AB70D3
:106DF0002A70FDF797FA238AADF8083001238DF841
:106E00000A300023ADF80C3020880DF1060302A9EA
:106E1000CDE90435FFF754FE07B030BD0E20FBE787
:106E20000820F9E7E3980020DC98002070B50D46B3
:106E300088B0044650B149B1826A3AB10B88502BF0
:106E400049D005D8102B43D0112B54D008B070BDB9
:106E5000512BFBD18E79022EF8D10A89038A9A42EE
:106E6000F4D18B7B043B022BF0D99DF816308DF8C2
:106E7000106043F001038DF816300B8AADF818301E
:106E80004B8AADF81A30082201F1140301A8002141
:106E90000793FDF747FAA18A2088019601AACDF849
:106EA00008D0FFF70BFE48B3E36A03B1984740F2FE
:106EB000FD132088ADF8143004A9FFF703FE002865
:106EC000C4D0E36A002BC1D008B0BDE870401847B9
:106ED0008B882380BAE7C98803899942B6D10823F1
:106EE0008DF81030123535F8023C8DF818300595C4
:106EF00004A99047AAE74FF6FF73EAE7BDF8003010
:106F00002088DB07D3D5002604A9ADF81460FFF76D
:106F1000D9FD0028D5D1297D4B1E072B3ED8DFE8AF
:106F200003F004192226282A3B2C6B8A8DF8046072
:106F3000012B05D8062201212046FFF743FFBEE7BB
:106F4000012315358DF80C300295A36A01A920465E
:106F500098477BE76A8A01239A428DF80430F0D87B
:106F600006220221E8E702238DF80430EDE703232F
:106F7000FAE70423F8E70523F6E76B8A022B02D829
:106F800003220821D8E7B5F81530ADF80830002BFA
:106F900014BF06230723E7E70923E5E70322CBE72E
:106FA000A8DF7047AADF70472DE9F04180468EB018
:106FB00015461F460E4611B9084600F097FD15B953
:106FC000284600F093FD1C220DEB02000021FDF786
:106FD000A9F99DF81C30ADF80480002443F00203A9
:106FE0008DF81C3021460123032268468DF80630B7
:106FF000CDE90A44CDE90C440894FDF793F93B78B8
:107000008DF800307B788DF801309DF8023023F048
:107010001F0343F002032146142202A88DF8023018
:10702000FDF780F90A48CDF80CD001AB029302AA13
:10703000149B0088ADF8105007A9ADF81240ADF8C8
:1070400014500696FFF7AEFF0EB0BDE8F08100BF0A
:107050000499002030B587B041F60A032D4AADF8F7
:107060000C30044603A901208DF80E00FFF798FFAD
:107070000546D8B92288E2B922894AB1264B009345
:10708000E16804F13C0342F62420FFF78DFFD8B9F4
:10709000228C4AB1214B0093616A04F13C0342F611
:1070A0002620FFF781FF78B9A36B7BB9284607B08C
:1070B00030BD1B4B0093616804F13C0342F629206C
:1070C000FFF772FF0028D7D00546EFE71A788DF852
:1070D00010205A888DF81120120A8DF812209A88F3
:1070E000DB888DF815301B0A8DF813208DF81630CB
:1070F000120A0C4B8DF814200093072204F13C0374
:1071000004A942F65020FFF74FFF002818BF05469C
:10711000CCE700BF04990020F4980020EC980020F0
:10712000FC980020E498002029DF704728DF704792
:10713000064B182202FB003000230422C0E904237E
:10714000037183608361C360704700BF2099002092
:1071500013B502460846C96843680093044B53F8C8
:107160002140436910F80C1BA04702B010BD00BFBE
:107170001099002038B5194C2378182202FB0343DC
:107180001A795869012A03D0032A1AD00F2038BD72
:10719000134A996915689A68DB68A2EB0532B2F563
:1071A000805F184401EB053100EB053034BF9208D5
:1071B0004FF48062FFF7B8FF0028E8D10123A370E5
:1071C000E5E74FF080531B699BB2B0FBF3F0044B33
:1071D0001B681844FFF7AAFFEEE700BF20990020C4
:1071E0000899002070B5134D6C780A2C1FD02E78AA
:1071F0003444E4B2092C84BF0A3CE4B2182606FBEE
:107200000454A261207103C9A360049BE360AB78BE
:1072100004F1100282E8030023B100206B780133EF
:107220006B7070BDFFF7A6FF1128F7D1F5E70420BA
:10723000F7E700BF2099002038B5264CA3782BB182
:1072400000230228A37002D003283BD038BD257844
:107250002149182202FB05420B6892680133B2EB08
:10726000033F0B6019D86B1CDBB262780020092B3E
:1072700008604FF0180188BFA5F1090302F1FF3241
:1072800001FB0541D2B288BFDBB2043162702370CA
:10729000FFF75EFF2846FFF74BFF6378002BD5D042
:1072A000A378002BD2D1FFF765FF0028CED011289C
:1072B000CCD02178182303FB01410431BDE83840CC
:1072C000FFF746BF2378182202FB034104310D204B
:1072D000F4E700BF209900200899002008B50A4B68
:1072E00000211960094B1980997008460131FFF798
:1072F0001FFF0A29F9D1064B00201860054BC3E98E
:107300000000C3E9020008BD089900202099002070
:107310000C99002010990020064A034610680428A2
:1073200007D00860411C11601A68034B43F8202005
:10733000002070470C9900201099002013B5CC183C
:107340000C43A40708D1009313460A4601460120C6
:10735000FFF748FF02B010BD1020FBE707B5002281
:107360000B46009201460320FFF73CFF03B05DF897
:1073700004FB0000094B5A7899780132D2B291424D
:1073800008BF0022197891421FBF02705A78182155
:1073900001FB023014BF043000207047289A0020FF
:1073A000082910B5044602D0002000F09FFBD4E964
:1073B0000030BDE81040184773B5054600240DF1B4
:1073C00007000E468DF8074000F09EFB0DF1060009
:1073D000FFF7D0FF30B99DF8070000F0B9FB04209B
:1073E00002B070BD0670084B9DF8062045609DF800
:1073F00007005A7000F0ACFB044B4FF48012C3F846
:1074000000212046ECE700BF289A002000E100E0C0
:10741000204B21491A682F2300BF00BF00BF00BFC7
:1074200000BF00BF00BF00BF8A422FD000BF00BF17
:1074300000BF00BF00BF00BF00BF00BF00BF00BF54
:1074400000BF00BF00BF00BF00BF00BF00BF00BF44
:1074500000BF00BF00BF00BF00BF00BF00BF00BF34
:1074600000BF00BF00BF00BF00BF00BF00BF00BF24
:1074700000BF00BF00BF00BF00BF00BF00BF00BF14
:1074800000BF00BF00BF00BF00BF00BF013BC3D1B2
:10749000704700BF0C8000200024F4000C4B0D4806
:1074A0004FF4003210B5C3F8802001244FF480332C
:1074B000C0F84833C0F808334460FFF7A9FF064B13
:1074C000846000201860FFF7A3FF044B187010BD04
:1074D00000E100E000100140209A0020159A0020F1
:1074E0002DE9F3412549264B0025C1F84051C1F84B
:1074F0004451C1F84851C1F84C51C1F80051C1F88C
:1075000004511B68002B34D0D1F804451D49DFF825
:1075100088800968641A24F07F442F461A68A242C2
:1075200012D8A41A15441A7CDE6962B15A691F7414
:1075300000929B69019342460821684600F044FA94
:1075400008B100F0D3FABEB90F4A104B11781B787E
:107550008B4205D10133DBB2022B08BF002313702D
:1075600012780B4B43F822500A4B4FF48012C3F8A9
:10757000002102B0BDE8F0813346CFE700100140A2
:10758000249A0020209A0020169A0020179A0020A2
:10759000189A002000E100E0A1730F002DE9F74FD9
:1075A0009D499E4A0B7812789D4C9A423CD00133FB
:1075B000DBB2022B08BF00239A4A0B709A49176866
:1075C00051F823003B1823F07F4313600022236807
:1075D00016461546944613B942B1236006E0196871
:1075E00081420FD902B12360091A19604FF00109D5
:1075F0002368DFF84C8200934FF0000ABEB94FF0C9
:10760000180B5DE0401A0D44D968D3F81CE0C3F8AC
:1076100000C031B17A1922F07F42C3E90121DE6155
:107620001E4673460122D6E70026B146E0E7304603
:10763000F6697C4B476819687C4A83687D1A25F097
:107640007F45954200F2A3802B44012505742568EF
:1076500003600021C0E90111C161002D40F09F804D
:107660002060CBE798F8020025684B1CDBB20BFBCF
:107670000181984208BF002388F800300B798868A0
:10768000022B75D0032B7FD0012B19D1057CBDB9FE
:10769000CF6847600B6983604B69C3608B69836106
:1076A000634B1B78002B18BF2F464760C1E7B842D9
:1076B00000F091803946FF69002FF8D10023037450
:1076C00098F8001098F801308B42CBD12368BAF1BA
:1076D000000F05D1009A9A4202D1B9F1000F41D0B2
:1076E000002B75D0D3F80090524C4E4BD4F8046563
:1076F0001868514F351A3B7825F07F4503359BB903
:107700004FF48033C4F84433C4F804334B4B4FF484
:1077100000324FF00108C3F880211A60C4F80080DD
:10772000FFF776FE87F80080A9452CBF4844401932
:1077300020F07F40C4F84005D4F804359B1B23F0AB
:107740007F43801B033320F07F4083420AD9D4F863
:107750000435C4F84035FFF75BFE384B4FF4003278
:10776000C3F80021324B00221A7003B0BDE8F08F3D
:107770002F462946A0E72974ED690123002DFAD18F
:10778000002B9DD025609BE700231946F6E7C91B17
:1077900021F07F418B428CBF5B1A002355E729689B
:1077A000994213D3C91A2960C56159E7DB1BCF6918
:1077B0000D463FB139460F68BB42F7D8FF1A0F603C
:1077C0000F4629460360C761C86117E72946F2E7FB
:1077D000FFF764FEC6E7884211D1EB69236073B9F5
:1077E000DFF850E001910122CEF80820DFF834E004
:1077F000CEF800300E4B1A70FFF70AFE01993B6875
:10780000FF69CF6117B13A6813443B602368AB420C
:1078100018BF4FF0010A51E7179A0020169A00206E
:10782000249A0020209A0020189A0020FEFF7F0052
:10783000149A002000100140159A002000E100E099
:10784000289A002008B5FFF729FE104B00200B22D4
:1078500018809A700E4B18600E4B18700E4B1870F3
:107860000E4B4FF48012E021C3F8802183F81413EB
:107870001A6002F18042A2F56F22C2F8080583F86F
:107880001113074BD2F804251A6008BD289A00206E
:10789000249A0020179A0020169A002000E100E0A8
:1078A000209A0020074B9B784BB132B128B1036876
:1078B000187C20B959745A61704707207047082016
:1078C000704700BF289A00202DE9F743DFF88C802D
:1078D00098F8023005460E461746C3B3B8B30429DC
:1078E00033D943699BB3437C0024012B0DF107007E
:1078F0000CBF8946A1468DF8074000F005F90DF14F
:107900000600FFF737FD38B99DF8070000F020F9B1
:10791000042003B0BDE8F083012303700D4B4560E4
:10792000D3F80435C0E90497C0E902369DF8063063
:107930009DF8070088F8013000F00AF9064B4FF473
:107940008012C3F800212046E3E70720E1E7082082
:10795000DFE700BF0010014000E100E0289A0020AE
:10796000064A92783AB130B1426922B100220274DB
:107970000221FFF721BD0820704700BF289A002090
:107980004B1C30B5DB00044612F003009BB20DD156
:10799000074D2A601A44074B1A60074B1870074BB3
:1079A0001870074B1C80074B198030BD0720FCE77F
:1079B000409B00203C9B0020389B0020399B0020EE
:1079C000369B0020349B00202DE9F347DFF8B4807C
:1079D000B8F800308B4206460C4617464AD30025BD
:1079E0000DF107008DF8075000F08EF8224B234A66
:1079F000DFF894C01B78BCF800C010786045C1B2B5
:107A000038BF0131DBB238BFCDB2AB429DF80700C1
:107A100005D100F09DF8042002B0BDE8F08715788C
:107A20001178DFF86890CBB28C4586BF0133DBB2AA
:107A30000023EDB2137000F08BF8D9F800304FEA54
:107A4000C50A43F8357003EBC50286B17CB10C4B17
:107A5000B8F800001B68224605FB0030314603F0F1
:107A6000C6FDD9F8003053449C800020D4E70023A1
:107A70009380FAE70920CFE7399B0020389B00204C
:107A80003C9B0020369B0020349B0020409B002024
:107A900070B5104C104D22782B789A4200D170BDF1
:107AA0000E480F4A2378126806880E4802EBC3017D
:107AB000006852F83320898803FB060090470A4982
:107AC00022780988D3B2914286BF0133DBB200230A
:107AD0002370E0E7399B0020389B0020369B002074
:107AE000409B00203C9B0020349B00201FB50021C0
:107AF000CDE9021001AA44F20100ADF80410FCF730
:107B000066FE05B05DF804FB70B5EFF3108672B643
:107B10000C4A9468012384B993600B4B0B4DD3F846
:107B2000801029401160C3F88050D3F88410516050
:107B30004FF0FF32C3F884202346037006B962B6C3
:107B400070BD00BF449B002000E100E0FC06FFBDCB
:107B500010B5084B9A685AB150B9EFF3108172B65C
:107B6000054A1C6814605C685460986001B962B68C
:107B700010BD00BF449B002000E100E003462AB195
:107B800010881A4619448A4203D170474FF6FF7095
:107B9000F7E743BA12F8010B9BB25840C0F3031346
:107BA000434083EA0333580100F4FF509BB258402E
:107BB000E9E70000064B074A00201870064B1A60E0
:107BC0000822C3E90120C3E90300C3E905007047A7
:107BD0004CAE00206C9B0020509B00200020704782
:107BE00030B50446E9B1124B5A6800200860D2B1A2
:107BF000B4F5167F19D8013A5A60DA681C68013268
:107C0000DA601A694FF4177505FB02440C60996934
:107C1000012494400132214302F0070299611A6164
:107C200030BD0E20FCE70420FAE70C20F8E700BF87
:107C3000509B0020F0B51C498A6892B34D690E68CC
:107C4000AC1A04F0070423464FF4177707FB036CC4
:107C5000604510D1886901259D40684088610020F9
:107C60004E68D1F818C04FF0010E73440025164439
:107C700003F007030AE0013303F007039D42E5D157
:107C80001020EDE74AB1013A1C4601250EFA04F432
:107C900014EA0C0FA6EB0207F4D00DB1C1E9017292
:107CA000F0BD0420FCE700BF509B0020064A13698A
:107CB0001268013B4FF4177103F0070301FB032324
:107CC000C3F8580200207047509B002030B5C0B167
:107CD000B9B10E4BDA68B2B1013ADA609A681C6841
:107CE00001329A605A694FF4177505FB024404602B
:107CF0000132D4F85802086002F007025A610020ED
:107D000030BD0E20FCE70420FAE700BF509B0020A6
:107D10003FB40C49086890B10B4B1C687CB10B4A0E
:107D20001568CDE9025000238DF804300B60136014
:107D300004AB13E90700234604B030BC184704B075
:107D400030BC704750AE002068AE002058AE002016
:107D5000DC2810B509D0DD2810D0C02816D1FFF7D7
:107D6000D7FF0E4B0E4A1A6010BD0E4A0E4B196813
:107D70001368581C1060C022CA54F2E7094A0A4B23
:107D800019681368581C1060DB22F5E7064B054A9A
:107D9000196813685C1CC8541460E2E72080002056
:107DA000C17D0F0050AE002058AE0020C02802BF99
:107DB000014B024A1A60704720800020C17D0F00ED
:107DC000C02810B409D0DB280BD0094B094A196828
:107DD00013685C1CC854146006E05DF8044BFFF7A0
:107DE00097BF054B054A1A605DF8044B704700BF0A
:107DF00058AE002050AE002020800020517D0F00A2
:107E000007B501228DF807000DF10701002002F0EF
:107E10007DFDB0FA80F04009800003B05DF804FBFE
:107E200010B5064A064C12682368D05CFFF7E8FFDD
:107E300010B923680133236010BD00BF64AE002079
:107E40005CAE002008B5C020FFF7DAFF28B9034B6D
:107E50001B6813B9024B034A1A6008BD5CAE0020D0
:107E60001C800020217E0F0008B5DB20FFF7C8FF33
:107E700010B9024B024A1A6008BD00BF1C800020E6
:107E8000857E0F0010B50C4A0C4C12682368D35C39
:107E9000C02B03D0DB2B0DD0042010BDDC20FFF75E
:107EA000AFFF0028F9D12368054A01332360054B51
:107EB0001A60F2E7DD20F2E764AE00205CAE00203D
:107EC000217E0F001C8000207FB5184C184D194EE4
:107ED000002002F0BBFC30B322689AB129683368F5
:107EE00099420FD2012201A9002002F0BBFC10B977
:107EF0004FF0FF3001E09DF804000F4BC0B21B684B
:107F00009847E5E70D4B1B686BB10292084A0221C6
:107F1000126803928DF8041004AA12E9070004B055
:107F2000BDE87040184704B070BD00BF58AE0020D7
:107F300050AE002054AE00202080002068AE00200B
:107F4000014B18600020704768AE0020034B1A7880
:107F50000AB901221A700020704700BF6CAE0020E1
:107F6000014B0020187070476CAE00202DE9F04FD7
:107F700085B000284ED0284F3B78012B06D0022B2D
:107F80000CBF0420082005B0BDE8F08F234CDFF8BB
:107F90009C90234E234DDFF89880DFF898A0DFF8FF
:107FA00098B0C9F8001000232360022330603B70B2
:107FB000C5F800802268D9F800309A4214D3C5F879
:107FC0000080FFF73FFF18BB174B1B6801223A7078
:107FD000F3B18DF80420326802922268039204AA59
:107FE00012E90700984713E0336822689A5CC02AB8
:107FF00003D022689B5CDB2B04D12B68534508BF60
:10800000C5F800B02B689847042801D01128D1D1B9
:108010000020B8E71020B6E76CAE00205CAE002070
:1080200064AE00201C80002068AE002060AE0020FE
:10803000457E0F00217E0F00697E0F00054B064A2A
:108040001860064B1960064B00201860054B1A603B
:10805000704700BF58AE0020AD7D0F0054AE002029
:1080600050AE002020800020064B07481B68DB0034
:10807000DBB20022037004215B4242708270C37045
:10808000FFF774BFACAE00206DAE002010B52B4CD6
:108090002378012B04D0022B1ED003B958B310BD96
:1080A0000128FCD1264B1968264B06311868FFF7CA
:1080B0005DFF08B1FFF71AFD02232370224B23480E
:1080C000002241F67F211A60FFF7FEFB0028E6D070
:1080D000BDE81040FFF70ABD02281BD0032802D0DC
:1080E0000028DCD1EAE71A4A1368013303F00703DA
:1080F0001360002323701548FFF732FC08B1FFF727
:10810000F5FC144B1B68002BC9D0134ABDE8104086
:10811000107818470C4A1368052B0AD001331360F6
:10812000074B1968074BBDE8104018680631FFF788
:108130001DBF094B01221A70DBE700BFBCAE002057
:10814000A0AE0020A4AE002078AE00207CAE0020BF
:10815000A8AE0020B8AE002076AE0020F0B585B005
:1081600004AB03E907009DF804000D4616460328FA
:1081700076D8DFE800F00802A8AB012005B0BDE822
:10818000F040FFF783BF032A524C40F283804B78C4
:1081900013F00F0269D00E2A7CD1042E59D00A7830
:1081A000500656D5110654D51A44AB781A44EB78CC
:1081B0001A4412F0FF024CD1B71E39462846FFF789
:1081C000DDFCEB5B834244D143492A780B6802F023
:1081D0000702D8B282422FD1013303F007030B60AC
:1081E000FFF742FF3D4B012230461A70FFF75EFD5C
:1081F00008B1FFF77BFC37494FF41670FFF7F0FC2E
:10820000B0B1042810D136480521FFF717FF08B197
:10821000FFF76CFC334B1B68002B59D04FF000006C
:1082200005B0BDE8F04018470020FFF75FFCEAE723
:1082300020684FF41671E8E720684FF41671FFF7D5
:10824000FDFE08B1FFF752FC05B0BDE8F040FFF7B6
:108250000BBF20684FF41671FFF7F0FE002837D0EF
:1082600005B0BDE8F040FFF741BC0A7889781344B7
:108270000B44E9780B44DBB263B91B4B1B68013339
:1082800083EAD20313F0070304D1184A03201370C2
:10829000FFF7FCFE25681DB14FF416712846DBE799
:1082A0000C494FF41670FFF79BFC18B920684FF487
:1082B0001671D1E7042802D109480521CCE72846E8
:1082C000FFF714FCF8E706480521C5E70320C7E7D8
:1082D00005B0F0BDB0AE0020ACAE00209CAE0020DA
:1082E00071AE0020B4AE0020A8AE002076AE002013
:1082F0000220FFF7CBBE0000074B10B50446186004
:108300000648FFF71DFE08B1FFF7F0FB002C0CBF7D
:108310000E20002010BD00BFB4AE00205D810F0014
:10832000184A1948002310B51360184A1360184AF8
:108330001360184A1370184A1370184B184A012119
:108340001960184B1960184B1970FFF7ABFA08B198
:10835000032010BDFFF72EFC0028FAD1FFF7F6FD31
:108360000028F6D1114C4FF416702146FFF738FC67
:108370000028EDD120684FF41671BDE81040FFF7DA
:108380005DBE00BFA4AE0020B4B90F00A0AE0020B7
:1083900078AE00209CAE0020BCAE0020ACAE002029
:1083A000F1820F00A8AE002076AE0020B0AE002013
:1083B0000C4A08B5002313600B4A1360FFF70EFC4C
:1083C00008B1FFF793FBFFF7CBFD08B1FFF78EFB7A
:1083D0000648FFF7C5FA042802D10020FFF786FB04
:1083E000002008BDB8AE0020B4AE00207CAE002056
:1083F00037B50D46044698B191B10A4B1978002261
:10840000019259B101A91A70FFF760FC019B063B6C
:108410002B8023680433236003B030BD0420FBE7C6
:108420000E20F9E79CAE00200438FFF703BC18DFEC
:1084300070470000F0B51D46154B87B018680F4611
:1084400059681B7A03AC03C42370124B186859682F
:10845000114B009301AC03C42046164603F0D5F837
:1084600021460246384603F0C2F801A803F0CDF8D1
:1084700001A90246304603F0BAF8684603F0C5F891
:1084800069460246284603F0B2F807B0F0BD00BFC7
:10849000B8B90F00C1B90F00312E3000012070476C
:1084A00010B51C460B781E2B06D000232022052178
:1084B00002F072FC204610BD0024FBE7F8B5069FD1
:1084C00014460D463A46002118461E46FBF72AFF81
:1084D0007CB14FF0E023D3F8F03DDB0700D500BEC0
:1084E0004FF0FF30F8BD284600F0F8F9013504F5EB
:1084F0000074BC4206EB0401F5D32046F2E700000D
:10850000F8B50A4F0D461E460024069B9C4206EB1A
:10851000040101D32046F8BD3A46284600F0AEFAE1
:108520000028F7D0013504F50074EEE7C0AE002056
:1085300030B5264D2A7A8DB09AB107AC14220021AD
:1085400020460625FBF7EEFE8DF81C500B9B009392
:1085500094E80F00FCF7EAFF0620FCF7D5FC0DB00D
:1085600030BD2B68002BFAD0194B197819B10520B2
:108570001A70FCF7C9FCD5E900329A42EFD307AC78
:10858000142200212046FBF7CDFE6B7ADBB10623D7
:108590004FF420424FF474214FF460208DF81C30CA
:1085A00002F0FBFF0028D1D01022002103A8FBF726
:1085B000B9FE4FF460224FF4205303A8CDE9042301
:1085C000FFF735FFC2E78DF81C30BFE7C0AE0020D3
:1085D00024800020024B0B604FF40073138070471F
:1085E000090101000120704700487047ED8000201C
:1085F000044B054A1878054B00280CBF1046184656
:10860000704700BF6FB100208B80002040800020A9
:108610002DE9FF411E4B187020B11E4B2A229A7281
:108620000022DA721C4A1D4DDFF878C017461C4B39
:10863000EE4603F11006744618685968F046A8E83B
:1086400003000833B342C646F6D12B7803F00F037C
:1086500010336B4413F8103CD373114B18685968EE
:10866000A646AEE803000833B3427446F6D115F8C7
:10867000013B04A901EB1313654513F8103C9373F8
:10868000A2F10202D3D100233B7404B0BDE8F08113
:108690006FB10020ED8000205EB10020600000106E
:1086A000C9B90F006800001010B570B9134B144819
:1086B0001968022202F09BFF01230133DBB211484B
:1086C0005B0043F44073038010BD052813D80B4BA7
:1086D00053F82040204602F098FFC3B21F2B28BF5A
:1086E0001F23084A2046E1188842E6D010F8014BC3
:1086F00022F8024FF8E70020E6E700BF28800020BC
:10870000DEB00020DCB000204DDF70474EDF704748
:108710004FDF704750DF704712DF704700F0DEBE5A
:10872000002000F02FBD00001FB5244B402283F82D
:10873000272300238DF807304FF4405304465A682E
:108740001F4B9A4227D10DF10700FFF7E5FF9DF877
:10875000073003B30120FFF7D9FF0120FFF7D4FF53
:108760000120FFF7D5FF02A8FFF7D4FF029BDA072D
:1087700002D5002000F0B2FE029B9B0702D502202A
:1087800000F0ACFE2046FFF743FF00F027F802F0B0
:1087900043FE04B010BD002301A88DF80430FCF79F
:1087A0006DFC084B039303A8FCF790FCFCF794FCCA
:1087B0004FF08043D3F838340293D7E700E100E06C
:1087C000DBE5B1511D870F00012000F087BE0120BD
:1087D000FCF79ABB0220FCF797BB00007FB52F493E
:1087E0002F4802F0CBFE4FF440532E4A5968914275
:1087F0004CD11A78102A46D9142A186944D95B69D1
:10880000294CB3FBF4F50A2201A904FB153402F04C
:10881000B3FE2649224802F0B1FE01A9204802F029
:10882000ADFE23491E4802F0A9FE0A2201A92846EE
:1088300002F0A2FE01A91A4802F0A0FE1D49184844
:1088400002F09CFE4FF47A760A2201A9B4FBF6F5F9
:10885000284602F091FE01A9114802F08FFE154949
:108860000F4802F08BFE0A2201A906FB154002F018
:1088700083FE01A90A4802F081FE0F49084802F070
:108880007DFE04B070BD00200023B9E70B49044809
:1088900004B0BDE8704002F071BE00BFE7B90F0040
:1088A000FF800020DBE5B15140420F0065B90F00A9
:1088B000F2B90F00F4B90F00FFB90F00F6B90F00BD
:1088C00010B503461C1A944200DB10BD0C781CB195
:1088D000013103F8014BF5E72024FAE72DE9F041D7
:1088E0000C4605464FF4007200212046FBF71AFDA6
:1088F00065B95B493E22204602F079FE552384F893
:10890000FE31AA2384F8FF31BDE8F081B5F5017F7F
:108910002CD86B1EB3F5817F24BF6FF4817805EBF3
:1089200008034BB9F822227004F109012246FF2006
:1089300002F8010F9142FBD11A02C3EBC35304EBBF
:10894000432302F5807540F69364111FB1F5696FFA
:1089500002F1010106D2A24214BF88B24FF6FF70A5
:1089600023F812008D420A46EFD1CDE7B5F5027F1C
:1089700039D86FF4017C65443DB9204639490B2252
:10898000FFF79EFF2823E3722034374B2E0103EBC1
:10899000052864270025022EB6D80B224146204622
:1089A000FFF78EFF572355205B2260216374E37429
:1089B0006376B31C6773A073E1732274A274257588
:1089C0006575A075E17522766383D8F80C0038B11F
:1089D00002F01BFEE0610136203408F11008DAE7EE
:1089E0004FF4E910F6E7214B9D428DD86FF40277E2
:1089F000EA19012A0DD81C4B03EB0213DD68284647
:108A000002F003FE294602462046BDE8F04102F08E
:108A1000EEBD6FF4FD76A9190902B1F5801FBFF410
:108A200073AF134B236003F1144303F52C1303F6C8
:108A3000023363600F4BC4F8FC314FF46963A361E8
:108A40004FF40053A5F20B254FF48072A3600A4B3C
:108A50006561E1602261E36104F12000D5E700BFB8
:108A600002BA0F002DBA0F0040BA0F000801010032
:108A70005546320A306FB10A29009A23F7B5644B84
:108A800014460A689A420D4608D103F114434A6815
:108A900003F52C1303F602339A4203D04FF0FF3054
:108AA00003B0F0BDD1F8FC215A4B9A42F6D18B6845
:108AB00023F4FF5323F01E039B049B0CB3F5005FCC
:108AC000ECD10B69B3F5807FE8D1C86810F0FF06E0
:108AD000E4D1CB69504A934205D0504A934243D0E7
:108AE0004F4A9342DAD1A0F58053B3F5692F07D2EC
:108AF00001234FF4807205F12001FBF711FE02E023
:108B0000B0F5805FCAD2AB695BB32268934207D0ED
:108B100041F263018B4200D80AB14FF0FF3323606A
:108B20006B6941F2630293421BD803F0070204EB26
:108B3000D303012191401A7B1142C8B204D161686C
:108B4000024301311A736160D4E900329A4208D3BA
:108B50000120FBF7C7FD637A1BB1A37A0BB9012390
:108B600023724FF400709BE701276772CB68B3F163
:108B7000102F17D104223431684602F038FD042248
:108B800005F138010DEB020002F031FD009BB3F559
:108B9000742F03D1019BB3F57E2F01D027727DE79F
:108BA000A772B0E7A3F57422B2F5204F28D2E27A7B
:108BB00001F12007DAB91B4A934218D32B69B3425B
:108BC00015D90422B919684602F011FD009BD02B7B
:108BD00014D10422311D0DEB0200394402F007FDCF
:108BE0000F4B019A9A424FF001030ED1E372E868ED
:108BF0002A6901233946A0F5A0307EE70836DDE773
:108C0000B3F5805FFFF47FAF0123237246E700BF17
:108C10005546320A306FB10A4028A5AD3C8263D672
:108C200029009A2300D80F004FF08053D3F8300169
:108C3000082805D1D3F83401003818BF0120704747
:108C4000A0F10D035842584170470000094B012222
:108C500083F8D8200260BFF36F8FBFF34F8F064AAF
:108C6000904202D0043A904202D1002283F8D820E8
:108C7000704700BF70B100205070024042DF704763
:108C800043DF704744DF704712DF704707B54FF48A
:108C9000405300205A68084B9A420AD18DF80700C9
:108CA0000DF10700FFF7F0FF9DF80700003818BF2F
:108CB000012003B05DF804FBDBE5B15107B5FFF718
:108CC000E5FF58B1002301A80193FFF7DBFF0198EE
:108CD000003818BF012003B05DF804FB4FF080435B
:108CE000D3F80C0400F00110A0F1011358425841D0
:108CF000F1E7000010B5134B134A5B68C3F3080398
:108D000083B9EFF310836BB910494B681B0609D583
:108D10008024C1F8844092F8D8308BB9FFF796FFD1
:108D20004C6010BD92F8D83033B10146BDE8104018
:108D30000748012201F097B8BDE81040FFF786BF51
:108D40004C60E6E700ED00E070B1002000E100E0DB
:108D5000F58C0F000D4B182202FB0033598A1A8A3A
:108D6000521A998A92B28A4228BF0A46D9681423B5
:108D7000434303F1804303F51C33C3F80016C3F8E3
:108D80000426034B03EB8000FFF7B4BF70B1002053
:108D900004700240074BD3F8C024D10309D406491C
:108DA0000648D1F8C010C3F8A017C3F8A427FFF7EE
:108DB000A1BF70470070024070B1002048700240AF
:108DC000082870B402D170BCFFF7E4BF0F4D104A01
:108DD00000F594731821414352F823406B18A4B254
:108DE000DE889B8869589B1B9BB2A34228BF234601
:108DF000142404FB0022C2F80017C2F80437054B04
:108E000070BC03EB8000FFF775BF00BF70B100209E
:108E1000007002402870024070470000014B802221
:108E20005A60704700E100E0024B8022C3F88420C2
:108E3000704700BF00E100E0074BD3F80014D3F8FF
:108E400000240A43C3F800240022C3F858214FF439
:108E50008002C3F8042370470070024070B5887820
:108E6000404D00F07F0318220C26C4095A4306FB2C
:108E700004228E882A44C6F30A061681CA7802F0B4
:108E80000302012A29D00121374A01FA03F5D4B996
:108E900003F10C06B140C2F80413D2F8141503F51F
:108EA00094732943C2F8141542F823402E4BC3F89B
:108EB000180540F48070C3F80C05BFF36F8FBFF343
:108EC0004F8F012013E002339940C2F80413D2F807
:108ED00010352B43C2F81035E8E7082B08D04FF0C7
:108EE000E023D3F8F03DDB0700D500BE002070BDC5
:108EF0001D4BDCB9B5F8D42012B18022C3F81C2573
:108F00000022C3F85021D3F8002312F4001208BF46
:108F1000C3F85421144B4FF44012C3F80423D3F880
:108F2000142542F48072C3F81425BFE70022C3F869
:108F30002C21B5F8C82012B18022C3F81C25D3F823
:108F4000002312F4001208BFC3F85421064B074A4D
:108F5000C3F80423D3F8102542F48072C3F8102517
:108F6000A4E700BF70B1002000700240000820009C
:108F70002DE9F8431D4B1E4DDFF88080802201242F
:108F8000C3F88420274604F10C03A21C07FA02F25E
:108F900007FA03F31343C5F80833A30003F1804332
:108FA00003F51C3300264FF018095E6009FB0480AE
:108FB0009E624A4631460134FBF7B4F9082CE2D1EF
:108FC0000C4BC5F808334A46C5F81C650A486E6262
